:020000040000FA
:10000000C05D00205DF2000045B8010049F200002B
:1000100049F2000049F2000049F20000000000002F
:1000200000000000000000000000000029F40000B3
:1000300049F2000000000000F5F3000049F2000062
:10004000E9F50000BDDC0100E9F50000E9F500007C
:10005000E9F50000E9F50000E9F50000E9F5000028
:1000600073DC0100E9F50000E9F50000A7DC010000
:10007000E9F50000E9F50000E9F50000E9F5000008
:10008000E9F50000E9F50000E9F50000E9F50000F8
:10009000E9F50000E9F50000E9F50000E9F50000E8
:1000A000E9F50000E9F50000E9F50000E9F50000D8
:1000B000E9F50000E9F50000E9F50000E9F50000C8
:1000C000E9F50000E9F50000E9F50000E9F50000B8
:1000D000E9F50000E9F50000E9F50000E9F50000A8
:1000E000E9F50000E9F50000E9F50000E9F5000098
:1000F000E9F50000E9F50000E9F50000E9F5000088
:1001000053B94AB9002908BF00281CBF4FF0FF317E
:100110004FF0FF3000F00CB8ADF1080C6DE904CEE3
:100120000BF040F9DDF804E0DDE9022304B070478C
:10013000704700BF2DE9F00791E8F807B2E8021018
:100140005B1854EB0C04B2E802104D4156EB0C0660
:10015000B2E802104F4158EB0C08B2E8021059EB1C
:1001600001095AEB0C0A80E8F80780410130BDE82C
:10017000F00770472DE9F00791E8F807B2E80210A0
:100180005B1A74EB0C04B2E802108D4176EB0C069E
:10019000B2E802108F4178EB0C08B2E8021079EB5C
:1001A00001097AEB0C0A80E8F80780414042BDE87B
:1001B000F00770472DE9F007524290E87800B1E867
:1001C00080071740DB1918EA020854EB080419EA03
:1001D000020955EB09051AEA020A56EB0A0678C02D
:1001E00090E87800B1E8800717407B4118EA0208E0
:1001F00054EB080419EA020955EB09051AEA020A48
:1002000056EB0A0678C080410130BDE8F007704720
:100210002DE9F007524290E87800B1E880071740D6
:10022000DB1B18EA020874EB080419EA020975EBF3
:1002300009051AEA020A76EB0A0678C090E8780007
:10024000B1E880071740BB4118EA020874EB0804C4
:1002500019EA020975EB09051AEA020A76EB0A06A1
:1002600078C080414042BDE8F00770472DE9F001B9
:1002700052424FF0040890E8300091E8C000A31B00
:100280001340E41AF618EB1B1340ED1AFF1830C0A8
:10029000C0C1B8F10108EED1BDE8F001704700BF60
:1002A00000B592E8DC072DE9DC07B1E8805702B41D
:1002B000A7FB02510A95A8FB020BE7FB6310E9FBC1
:1002C00062B00B91A8FB0351EAFB6201E7FB64B546
:1002D000E7FB6605E8FB6615CDF830B0A9FB03B671
:1002E000EAFB6316ECFB6356E8FB640BE9FB641B5B
:1002F000EAFB645BECFB646B0D90ACFB0230059C8D
:10030000EEFB6250E9FB6460EAFB64B0E7FB64313A
:10031000E8FB6451069CE8FB6461E9FB64B1EAFB1D
:1003200064010E93A7FB0432079CE7FB6462E8FBC1
:1003300064B2E9FB6402EAFB6412049CE9FB6453C7
:10034000EAFB6463089CE7FB64B3E8FB6403E9FB36
:100350006413EAFB64230F955DF8049B99E800069B
:10036000DDF80080A9FB0854EAFB68B4DDF81080D2
:10037000ECFB6804EEFB6814E9FB6824EAFB6834D4
:10038000DDF80480EEFB6865E9FB68B5EAFB68050B
:10039000DDF81480ECFB6815EEFB6825E9FB683599
:1003A000EAFB68450F96DDF80880AEFB0876E9FBAE
:1003B0006806EAFB6816DDF81880ECFB6826EEFBA1
:1003C0006836E9FB6846EAFB6856DDF80C80ECFB12
:1003D00068B7EEFB6807E9FB6817EAFB6827DDF8FA
:1003E0001C80ECFB6837EEFB6847E9FB6857EAFBCB
:1003F000686708B000BD00BF2DE9F14F87B0FFF777
:100400004FFFDDF81C8008F1200888E8FF00FFBCE2
:1004100087E87F08BDE8F08F00B591E89857A3FB07
:1004200003520195A3FB0401E3FB6420E3FB671087
:100430000292A3FB0752E3FB6802E4FB6415E3FBB3
:100440006805E3FB69250391A4FB07B6E3FB692676
:10045000E3FB6A56E4FB670BE4FB682BE3FB6A5B98
:10046000E3FB6C6B0490A4FB0810E4FB6950E3FB16
:100470006C60E3FB6EB0E7FB6721E4FB6951E4FBD2
:100480006A61E3FB6EB1E4FB6E010592A7FB0832E3
:10049000E4FB6A62E4FB6CB2E4FB6E02E7FB6E1203
:1004A000E7FB6853E7FB6963E4FB6CB3E7FB6C03B2
:1004B000E7FB6E13E8FB6E230695A7FB0954E7FBE9
:1004C0006AB4E7FB6C04E8FB6C14E8FB6E24E9FB00
:1004D0006E34E8FB6865E7FB6AB5E8FB6A05E8FB94
:1004E0006C15E9FB6C25E9FB6E35EAFB6E4507965A
:1004F000A8FB0976E8FB6A06E9FB6A16E9FB6C26AD
:10050000EAFB6C36EAFB6E46ECFB6E56E8FB69B71D
:10051000E9FB6907E9FB6A17EAFB6A27EAFB6C3724
:10052000ECFB6C47ECFB6E57EEFB6E6700BD00BF4B
:100530002DE9F14F87B0FFF76FFFDDF81C8008F160
:10054000200888E8FF00FFBC87E87F08BDE8F08F3F
:1005500030B44FF0000310F8014B11F8015B013A81
:1005600084EA050443EA0403F5D1A3F101034FEA49
:10057000D37030BC704700BF4FF0000310F8012B60
:10058000013943EA0203F9D1A3F101034FEAD37021
:10059000704700BF30B411F8014B12F8015B6C409A
:1005A00000F8014B013BF6D130BC70472DE9F00754
:1005B00091E8F807B2E802105B1854EB0C04B2E8BB
:1005C00002104D4156EB0C06B2E802104F4158EBB9
:1005D0000C08B2E8021059EB01095AEB0C0A8941E8
:1005E000B3F1FF3374F1FF3475F1FF3576F1000696
:1005F00077F1000778F1000879F101097AF1FF3A03
:1006000051F100015B184C414D4156F1000657F184
:10061000000758F1000859EBD1795AEB010A80E83C
:10062000F807BDE8F00770472DE9F00791E8F807F3
:10063000B2E802105B1A74EB0C04B2E802108D41B0
:1006400076EB0C06B2E802108F4178EB0C08B2E8AA
:10065000021079EB01097AEB0C0A89415B184C41D5
:100660004D4156F1000657F1000758F1000859EBCB
:10067000D1795AEB010A80E8F807BDE8F007704726
:1006800018EB040859EB05095AEB060A5BEB070B5C
:100690005FF0000C4CF1000C18EB050859EB060953
:1006A0005AEB070A5BEB070B50EB0C005FF0000CFA
:1006B00051EB0C0152EB0C0263414CF1000CB8EB16
:1006C000070879F100097AF1000A7BEB040BA841D5
:1006D000B141A241B3416CF1000CBBEB050BB04141
:1006E000B941AA41BB416CF1000C4CF001068CF001
:1006F000020718EB060859EB6C095AEB6C0A7BEB06
:100700006C0B70EB6C0471EB6C0572EB670653EBD2
:100710006C076CEB6C0C18EB0C0059EB0C015AEBF2
:100720000C025BF1000354F1000455F1000556EB97
:10073000DC7657EB0C0770472DE9F14F87B0FFF7D8
:10074000AFFDDDF81080DDF81490DDF818A0FFF79C
:1007500097FFBDE8000FFFF793FF03B05DF8048B30
:1007600088E8FF00BDE8F08F2DE9F14F87B0FFF773
:1007700053FEDDF81080DDF81490DDF818A0FFF7C7
:100780007FFFBDE8000FFFF77BFF03B05DF8048B30
:1007900088E8FF00BDE8F08F1FB5002303930193A5
:1007A000094B0293094B1B78002B14BF0223012332
:1007B0008DF80B3001A9FF2301208DF80C3000F0DB
:1007C000A7FB05B05DF804FB20010800800D0020A8
:1007D0001FB50A4B01934FF40E73ADF80830082390
:1007E0008DF80A3001A903788DF80B3000208DF8C0
:1007F0000C0000F08DFB05B05DF804FB07E4000081
:100800001FB572B6184B5D68E5B9BFF34F8F174936
:10081000174BCA6802F4E0621343CB60BFF34F8FFB
:1008200000BFFDE7B2FBF6F2DCB20133002AF9D1DA
:1008300004F110036B4403F80C2C0A2234B901A80C
:10084000A847E2E7024600230A26EDE7631E04AE4E
:10085000DCB256FA83F3B0FBF2F602FB160030303E
:1008600003F80C0C3046E9E7800D002000ED00E0B5
:100870000400FA0507B50C4B1A7C8DF80120DA7BD1
:100880008DF8002068469A7B5B7BADF80420ADF8BC
:10089000023003F0F9FD18B1DE210320FFF7B0FFAD
:1008A00003B05DF804FB00BF800D00202DE9F3418B
:1008B00004460D4671B91B4B93F82E3053B90121F4
:1008C00001A80193FFF7F2FF20B94FF40371032051
:1008D000FFF796FF2368144FDFF850800733002D91
:1008E00023F0070323600CBF2046002000F0ECFA41
:1008F000002657F8043B0BB1404698470136032EBB
:10090000F7D100F055FB031E09DB206818440DB138
:10091000002804DB2060012002B0BDE8F081002047
:10092000FAE700BF800D002010050020880D002090
:1009300073B5B0FA80F101900546490901A8FFF7A7
:10094000B5FF18B96FF00B0002B070BD304CA17B41
:10095000607B237CE27B033103300BF0D2FB011E72
:10096000F0DB0198237A627A0330134420F003000D
:10097000002D019003FB01F108BF002000F05AFC9C
:10098000019B0DB9C342DDD4224E18447368019017
:10099000ABB1617C99B1073020F00700002D0190C8
:1009A0004FF0250308BF0020282202F0DBF9031EC8
:1009B000C8DB019818440DB90028C3DB0190217DE4
:1009C000A9B173689BB1637C8BB10198073020F0AB
:1009D0000700002D019008BF002005F011F8031E4C
:1009E000B0DB019818440DB90028ABDB0190236BF4
:1009F0005BB1019B05B12363283301930DB1002046
:100A0000A2E7002B9EDB01989EE7002DF7D1FAE7C5
:100A1000800D00201005002038B5044698B30AF078
:100A20007FF810B94FF0FF3038BD0DF0F9FDB0F58B
:100A3000FA7FF7D8164D17486C6000F0C7F9164BCF
:100A40000024C3E900449C602622214605F10800E9
:100A500085F82E402C702C630AF038FC01232B7291
:100A60001B236B7340F21B33EB8140F202332B826A
:100A700008232B75EFF3108572B600F04BFC2DB9EF
:100A800062B62846D0E76FF01500CDE72046CBE7E9
:100A9000800D0020750800001005002010B500280A
:100AA0003FD1234C94F82E30032B37D061B1002A6C
:100AB0003AD00139062934D8DFE801F00433153380
:100AC00023332B00137823720020FFF731FF002817
:100AD000B7BF0123022384F82E306FF00B00A8BFAC
:100AE00084F82E3010BD9378F3B1D378E3B1137846
:100AF0001A2B19D953781A2B16D91368C4F80D304C
:100B0000E2E713780B4A52680AB1012B0CD96374DF
:100B1000DAE71388FF2B07D82375D5E74FF0FF30AE
:100B2000E0E76FF02C00DDE76FF01500DAE700BFBB
:100B3000800D002010050020F8B50D46074660B373
:100B400059B311F0070428D1154E96F82E30012B19
:100B500002D16FF00B00F8BD032B02D14FF0FF3034
:100B6000F9E700F089F80028F8D02846FFF7E0FE02
:100B70000028EEDB38460AF047F986F834000DF01D
:100B800099FC96F83400316B03F012FDFFF772FE0A
:100B9000032386F82E302046DDE76FF01500DAE7F4
:100BA000800D002010B5084C94F82E30032B05D191
:100BB00003F01AFD94F834000AF042F90BF0F7FA4A
:100BC000002084F82E0010BD800D002050B1074B8E
:100BD00003F1140253F8041B40F8041B9342F9D1AB
:100BE000002070476FF01500704700BFD6FB010072
:100BF00010B5084B93F82E4044B903F0BDFC064BEA
:100C0000064A5A60064A1A60204610BD4FF0FF306F
:100C1000FBE700BF800D00201005002099070000B1
:100C2000D107000010B5054B93F82E401CB90CF00D
:100C30000FFC204610BD4FF0FF30FBE7800D002079
:100C400010B5054B93F82E401CB90CF004FC20465F
:100C500010BD4FF0FF30FBE7800D0020024B026813
:100C60001A600020704700BFB80D0020014B1B68C0
:100C7000184700BFB80D0020024B1868003818BF95
:100C800001207047B80D00202DE9F8431C4E0446A2
:100C900000F104081A48C6F8008004F0A1FA0228FE
:100CA000054606D1164920460AF0EBFC2846BDE869
:100CB000F88304281CD1314620460AF047FDB0F5E0
:100CC000817F03D372210820FFF79AFD0028E1D02D
:100CD000277894F80290384600F028F80028D9D0F8
:100CE0003E2FE3D1484600F061F80028DED1D1E77D
:100CF0000828DBD1024920460AF0F2FCD6E700BF03
:100D0000BC0D0020074B4FF0FF3141F6FF72C3E9E5
:100D1000001205490022C1E900221F21C3E9021285
:100D2000704700BFC0040020C00E00203F280CD830
:100D300001380B4BC0F3421200F01F0053F8223071
:100D400023FA00F000F001007047FF2806D0403879
:100D5000C0F34212034B00F01F00EFE70120704781
:100D6000C0040020C00E00200146074B00684968FF
:100D70001A4603C240F48C221A6041F0107242F409
:100D8000FF625A60704700BFC00400200246024B59
:100D90000068516803C37047C00E00200246024B32
:100DA0000068516803C37047C80400200138064B2F
:100DB000C0F3421203EB820300F01F009B6823FA8A
:100DC00000F000F001007047C0040020014B1860E3
:100DD000704700BFC80E002010B5FFF793FF0CF05E
:100DE000BBF8034B1B68044603B19847204610BD6F
:100DF000C80E00200B880288F0B5C3F30E049EB223
:100E000004F11403C57CC35A02352A442B4497B21B
:100E100013FA82F3013B4288B3FBF7F313FB07435A
:100E20009BB29A42044A93BF22EA0603324013431C
:100E30009BB20B80F0BD00BF0080FFFF4A1E062A58
:100E400008B50346084604D84FF4D1711520FFF7C2
:100E5000D7FC094A914202D940F2A311F6E711B931
:100E600003B1196008BD2BB11B680022C3E9012141
:100E70001A1D1A600430F5E7FAFFFF7F10B5114B19
:100E800000EB41041A786389B3FBF2F303FB0223FE
:100E9000013A1A44B2F5706F027928BF00231A4450
:100EA0008378B2FBF3F0194403FB1020091AB1FB5D
:100EB000F3F003FB101313446FEA43436FEA534309
:100EC000638110BDCC0E002010B5104BC8B15A780C
:100ED000022A04D040F22B111720FFF791FC0322C5
:100EE0005A70026812F0070102D04FF49871F3E7CC
:100EF0005C685A6022440260C3E903119A60596138
:100F000010BD0122C3E901005A70F9E7CC0E0020A0
:100F10002DE9F041254E96F801E00EF0FD0CBCF1F4
:100F2000010F04D040F245111720FFF769FC91F83A
:100F30000680B8F1080F02D940F24711F4E7CF79E3
:100F40008FB34546022D726838BF02257B1D5C00B9
:100F500002EB43036A1E13446D422B408D884544C7
:100F6000013DC8F100022A40B2F5803F02D34FF4A0
:100F7000A971D9E7BEF1030F12D106EB80001C1B4B
:100F8000C56815B140F25711CEE7C460A770228042
:100F900084F803C0087A09682071080CE080218178
:100FA00007FB02337360BDE8F08100BFCC0E002068
:100FB0002DE9F047364C6378012B65D0032B04D024
:100FC00040F267111720FFF71BFCD4E901329A4267
:100FD00002D04FF4B571F5E72546002305F80C3B28
:100FE0001E460222994655F82200013A58B190F85F
:100FF00004808178B8F1FF0F2FD180F804908E42E1
:101000003CBFCEB20123511CEDD103B126700226A4
:1010100040F6FF6955F826709FBB013EFAD20423C3
:1010200063700020BDE8F08755F82CE0BEF1000F9A
:1010300006D09EF804A0C24504BF9EF802E07744A3
:101040000CF1FF3CBCF1000FEEDA3944FF2907D95F
:1010500003B126704FF48371B4E794460027F1E79B
:101060000771CCE707EB41033846A3F80A90FFF776
:1010700005FF08F10108BB785FFA88F18B42F1D8CF
:10108000CBE74FF00008F6E7022360686370C9E71A
:10109000CC0E0020F8B54FF6FF730380184B03EB1E
:1010A00081030546D868B8B186780379B3FBF6F2B8
:1010B00006FB1233DBB219460A1D00EB4202B2F9FD
:1010C00002705488002F09DB0131B1FBF6F206FBF8
:1010D0001211C9B28B42EFD10020F8BDFF29FBD01D
:1010E000C4F30E03C4782B8024B94FF4D9711720B0
:1010F000FFF786FB5380BDE8F8400AF0E1BF00BF70
:10110000CC0E00201D4B03EB810370B5DC68054657
:1011100044B3030404D54FF4E0711720FFF770FBCC
:10112000014620460AF0AEFFFF28014604D02046C3
:10113000BDE870400AF0C4BFA078B5FBF0F300FB37
:101140001353DBB219460A1D04EB4206B6F90260DE
:10115000002E09DB0131B1FBF0F200FB1211C9B224
:101160008B42F0D1002070BDFF29FBD08B4204EBF5
:1011700042021CBF0023E3705580D8E7CC0E00204C
:10118000094B03EB810310B5DC68014620460AF0E9
:1011900079FFFF28014604D02046BDE810400AF040
:1011A0008FBF002010BD00BFCC0E0020F8B5104B43
:1011B00003EB81030746DC68014620460AF062FF24
:1011C000FF28054611D0E688238953EA064606D053
:1011D000014620460AF074FF01463846B0472046D3
:1011E0002946FFF74BFE0020F8BD0520FCE700BFB5
:1011F000CC0E002038B50E4B827903EB82030446F7
:10120000D86808B9052038BD8278E1799142F9D2D1
:101210004B1CE37100EB41035D89B3F90A30002BED
:10122000F3DBA5800AF04CFF20600020EBE700BF55
:10123000CC0E002070B5044610F003000E4603D01B
:101240004F211820FFF7DCFAFFF7F8FD054624B11F
:10125000034831460460FFF7F1FD284670BD00BF2A
:10126000E40E00202DE9F14FDFF870B09DF828A0C2
:101270009DF82C901E46DBF8003007460D46904640
:101280001BB961211820FFF7BBFA524609214046DD
:101290000AF07EFD4A4684B2092130460AF078FD04
:1012A00014FA80F1DBF800000AF0C1FE386018B9CA
:1012B000286001B0BDE8F08F04442C6038685346C4
:1012C000414609220AF01DFD28684B460922314695
:1012D00001B0BDE8F04F0AF014BD00BFE40E0020DD
:1012E00070B50E4604460AF066FD054630460AF023
:1012F00062FD044B2A1821461868BDE870400AF0C8
:10130000BABE00BFE40E0020014B18680AF083BE8D
:10131000E40E0020134B012200214FF0FF309A60B1
:10132000C3F80012C3F80803C3F80015C3F8042576
:101330009A60C3F80803C3F80015C3F804250A49E6
:101340000A4A03F580334FF40040C3F80825C1F87A
:101350008000BFF34F8FBFF36F8FC1F88001C3F8D8
:101360000825704700F0004000E100E00000F63F73
:101370000A461E2302F8033B0448C368C1F8033041
:101380000369536043699360704700BFE80E002013
:10139000024B5A8C02435A845B6A1847E80E0020BD
:1013A000014B00215B6A1847E80E002010B5154C70
:1013B00006F044F805F0F2FB208DFFF7F1FF237EE5
:1013C00063B12246104952F80C3BE36063685360F6
:1013D00004F11900A36893600CF080FC0B4B228D84
:1013E00093E8030004F096FB236B188804F0BCFA22
:1013F000A36B94F8341094F835009847002384F8D0
:101400003C3010BDE80E002071130000140F0020C6
:10141000034B93F83C300BB1FFF7C8BF704700BFD8
:10142000E80E002008B5094B93F83C20022A04D0AE
:1014300040F253212720FFF7E3F9DA7A42F0010264
:10144000DA72BDE80840FFF7B1BF00BFE80E002028
:1014500010B50E4C226C137803F00303032B04D158
:10146000D378022B01D1002010BD606C0AF036FD4C
:101470000028F9D1236C1B7803F00303032BF2D06F
:1014800003F0D4F980F00100C0B2EDE7E80E0020CF
:1014900037B55E4C256B95F8942000238DF8053008
:1014A00094F848300AB10433DBB295F8681028B9D3
:1014B000FF2B03D195F869308B4202D0FF2005F055
:1014C000E7FD95F88A30032B00F29780DFE803F000
:1014D00002337A8D94F84930ADF806304C48A5F8BF
:1014E000583003F07DF950B1216C4FF48070FFF754
:1014F0004FFF012385F8853084F84A301DE0606C89
:101500000DF105020DF106010AF07DFC206490B199
:1015100095F8D1307BB99DF805302BB903808370E5
:10152000206C01210CF047FBBDF80610206C0CF07C
:10153000A5FB0123E0E7374B236495F88B30216C42
:10154000DB0003F008020B7803F0F303134395F874
:101550008C20920002F00402134323F010030B705E
:10156000FFF776FF0028206C027814BF10230023B9
:101570001343037095F89330002B41D04378002B30
:101580003ED0206F05F0F4FF012384F89030D5E9B8
:101590003C23216C206FC4E9222305F0B5FA95F8AD
:1015A0006910012006F040F8226C1188A4F8A110FF
:1015B0009178194A012384F8A030917084F83C3066
:1015C00003B030BDB5F85830606CADF806300DF1A1
:1015D00005020DF106010AF016FC20640028A8D1CE
:1015E00040F2F3212720FFF70BF9094803F0F8F840
:1015F00000289ED140F2FD21F4E740F20B31F1E7E3
:1016000005F0B6FF05F0CAFAC9E700BFE80E0020F2
:10161000280F0020330F0020890F00202DE9F74309
:101620004C4C94F83C30256B012B06460F4604D0F9
:1016300040F2A4412720FFF7E3F895F884302BB15E
:10164000002185F884100420FFF7A2FE216C0B789E
:1016500003F00303032B05D195F88A3013B9022058
:10166000FFF796FE226C137803F00303032B03D0DD
:101670005378002B5DD1012385F88A3095F894309A
:10168000B3B1D5E93E01236B94F84890C4E9220137
:101690004FF0000893F8690084F890800AF089FD03
:1016A0002D49CDF8008003464A46012005F0E6F9B1
:1016B000002E40D1002F3ED0D4F8A43030469847B9
:1016C000002838D094F83430ABBB256BD4F8AC305C
:1016D000C4F8A83095F8943094F8480083BBFF28EC
:1016E00095F8691003D195F868308B4201D005F068
:1016F000CFFC95F8943033B3206F05F039FF002309
:1017000084F89030D5E93E23216FD4F8A800C4E9CD
:10171000222305F0F9F9002005F03CFF95F8681048
:10172000002005F081FF022384F83C3003B0BDE8BF
:10173000F0830223A0E703B0BDE8F043FFF736BE15
:101740000430C0B2CBE7D4F8A80005F011FF05F0D3
:1017500025FAE0E7E80E0020600F002010B5064BE8
:1017600093F83C2002F0FF0422B91C7604F0CAF979
:10177000204610BD0C24FBE7E80E00200B4B0C4A62
:1017800070B506460D461A60FFF7E8FF18B1E12173
:101790002720FFF735F8074C012104F14B000CF02E
:1017A0000AFAC4F8AC60256770BD00BF1C050020B4
:1017B000B41D0000E80E0020024B012283F8B02087
:1017C000704700BFE80E0020F0B5754D85B002AC43
:1017D00084E8030095F83C100A9F01F0FF0611B958
:1017E0000AB103B127B940F26F112720FFF708F8BB
:1017F00094E8030005F12C0C8CE803002C6B6A6262
:10180000C5F8A430AF6385F8B06085F8346085F81A
:10181000B16085F8356085F8A06085F84A606E840F
:101820002E8505F061FC05F0B9F994F96C0005F01E
:10183000F9FC606A05F08EFEE06905F0F9FC94F8A9
:10184000A40005F01BFD94F86820564B33F81210E5
:1018500030464FF47A7301F5FA71B1FBF3F16E3152
:1018600005F064FD504B186805F07AFE23696B643F
:101870006369C5F8B43094F8773073B9226F62B1F8
:10188000B4F8BE10B4F888308B4206D1B4F87410A6
:101890000B44A4F8BE3001231360444E04F580735A
:1018A00004F5887718685968324603C20833BB428A
:1018B0001646F7D1D4F810313D4AC5F89130D4F826
:1018C000143153602B6B93F88E2093F86860253A9F
:1018D000012A03D993F88F20252A5CD193F8F2319D
:1018E0002BB1012E03D0012B0CBF0126022604F1DF
:1018F0003007314638460CF02EFA31460CF006F827
:10190000A38F94F86910834228BF0346384685F8B0
:1019100049300CF010FA94F8691094F89470B4F807
:101920004460042908BF03210BF0F0FF0FB9043015
:1019300080B2B04228BF304694F89330C0B285F8E8
:10194000B80085F848008BB1012385F89030D4E9C0
:101950003C2394F86800C5E922230AF02AFC0346D8
:10196000002012490090FB2205F088F80120FFF7C3
:101970008FFD00232B606B60AB60B4F888306B8008
:1019800023882B8094F8A4302B71A36F0BB1012214
:101990001A6005B0F0BD032E08BF0426A7E700BFFC
:1019A000E80E0020F4EC01001C050020600F002070
:1019B000790F002008B5094B93F83C201AB9BDE80F
:1019C0000840FFF7F3BC93F83C30012B04D040F201
:1019D00031212720FEF714FF08BD00BFE80E0020CC
:1019E000014B1876704700BFE80E00202DE9F34147
:1019F0001F4D82072C6B06460F4624D5D5F8BC3008
:101A000023B940F295412720FEF7FAFEB5F8C02031
:101A1000D5F8A8101846033291F8018009F0DEFBD2
:101A20000DF1020201A9C5F8A800D5F8B4000AF02A
:101A3000E8FA01980AF0CFFA012238604146D5F859
:101A4000B4000AF095FAF3070ED5D4E93E3201331B
:101A500042F10002C4E93E3294F88C30012B0CBFF5
:101A60000023012384F88C3002B0BDE8F08100BF70
:101A7000E80E00202DE9FF47AF4C0023CDE90233EB
:101A800094F83C30D4F830A0022B0746884604D0A6
:101A90004FF4A3612720FEF7B3FE238D580606D42A
:101AA0004020FFF77DFC238D43F0400323859AF807
:101AB0009430002F00F03081BBB105F09DF805F0A7
:101AC00081F890B9D4F8A8305A7872B11B789AF896
:101AD0008C20C3F3C0039A4207D1012384F8353028
:101AE000FFF764FC04B0BDE8F087D4F8A83059785B
:101AF000A4F8C01009B3D4F8B4000AF010FAC4F87E
:101B0000BC00238D9AF88B2043F400732385D4F80E
:101B1000A8301B78C3F380039A4200F0BC80256B89
:101B200095F88A30A3B3022B11D1606C02A90AF098
:101B30008DF928B940F20E41ACE7C4F8BC10E0E7DB
:101B4000D5E93C32013342F10002C5E93C3295F857
:101B50008530002685F88A6093B185F8856002F0AB
:101B60004FFE10B940F2254194E731460820FFF7B7
:101B70000FFCD5E93C32013342F10002C5E93C32A9
:101B800095F88B30012B0CBF0023012385F88B3097
:101B9000238D43F4006323854FF00009D4F8A81087
:101BA0009AF88C200D78C5F3C0039A4240F0A680C5
:101BB00005F00305032D266B6FD0002D78D196F824
:101BC0008C30013B18BF012386F88C30D4F8A83044
:101BD0005B7833B1D6E93E32013342F10002C6E907
:101BE0003E329AF893308BB1012384F89030DAE9D1
:101BF0003C239AF86800C4E922230AF0DAFA034683
:101C000000204E490090FB2204F038FFB8F1000F8D
:101C100000F0988005F028FD4FF001081DB103A9E0
:101C20000220FFF7E3FEB9F1000F04D0B4F8093049
:101C30000133A4F80930002F00F0B680B4F8053065
:101C40000133A4F80530002384F8B1303C4803F098
:101C500079FE029830B10AF0BEF9216B00220272BF
:101C600003F0FCFA039B33B1216B00221A720C22A1
:101C7000039803F0D3FAB8F1000F7FF431AF238D4E
:101C80001B063FF52FAF8020FFF78AFB238D43F023
:101C90008003238526E7B94680E7238D012043F49E
:101CA000805386F8840023850025FFF771FB86E7C3
:101CB0004D78002D83D0238D96F8945043F48053B3
:101CC000238505F09BF9042894F8B83006D1002D3F
:101CD00014BF1B221F22934228BF1346D4F8A8200A
:101CE00052789A420CD8D4F8BC50002D3FF479AF0A
:101CF00094F8B03073B12020FFF752FB002570E755
:101D000094F83430012043F0100384F8343006F0A6
:101D10002BFBF3E73D4652E70BB104F0A3FF94F829
:101D2000B130013384F8B130238D002543F4806352
:101D30002385A94655E700BFE80E0020600F00206C
:101D4000140F002094F8B130012B3FF663AFD4F8A4
:101D5000A4300120984700283FF45CAF94F8343059
:101D6000002B7FF457AF94F8A130D906C3F30012CB
:101D700002D5FFF76DFB0246D4F8AC30D4F8BC10A6
:101D80001B78C3F3001329B9B4F8C01013B1B1FA2A
:101D900081F35B09608C00287FF43CAF13433FF470
:101DA00039AFFFF775FB39E7B4F807300133A4F812
:101DB00007304BE725140000751A00001D160000BF
:101DC00011140000024B1B68002283F8702070473A
:101DD000AC0F002008B502F0DDFF014B187008BD04
:101DE000D004002008B5FFF7F5FF044B18680AF08F
:101DF00046FA05F023FB032008BD00BFAC0F00200E
:101E000010B5064C20680AF03AFA2068012380F8E1
:101E10007030BDE810400AF0F0BE00BFAC0F0020EB
:101E200070B52E4C23680646986F00F0E9FF054612
:101E300020B941F28B313220FEF7E2FC236893F89F
:101E4000543013B941F29131F5E77EB10BF08DFEBC
:101E500038B1236893F87020022A0FD841F211316B
:101E6000E9E728460BF099FE0028F2D1236893F8A1
:101E70007020022A19D841F27131DCE793F8702002
:101E8000082A02D941F21231D5E793F8703062681E
:101E900003F180431269033B284652F823309847E8
:101EA0000C2814D941F2A431C5E793F87020082A10
:101EB00002D941F27231BEE793F87030626803F1E3
:101EC00080435269033B52F823309847E8E7636840
:101ED000DB68BDE8704053F820301847AC0F002095
:101EE00008B5074B93F900207F2A04D140F25A31FC
:101EF0003220FEF785FC02707F221A7008BD00BFF9
:101F0000D004002010B504788EB004F00F042246EF
:101F100004A90AF0E9FB05F091FAFFF75BFF042C36
:101F200036D11D4A059B1468197894F88A2091428D
:101F30002ED1597894F88B20914229D1997894F830
:101F40008C20914224D1D97894F88D2091421FD1D0
:101F5000197994F88E2091421AD15A7994F88F30D9
:101F60009A4215D19DF8212094F890309A420FD1D1
:101F70000DF10F00FFF7B4FF9DF90F1094F8A0309A
:101F800094F87D20009104F1780004A90AF09DFBEB
:101F900003200EB010BD00BFAC0F002010B50F4ADB
:101FA000136893F87010022904D841F2914132204D
:101FB000FEF726FC93F87010082902D941F29241ED
:101FC000F5E793F87030526803F180439268033B61
:101FD000BDE8104052F82330184700BFAC0F002076
:101FE00010B500B919B9BDE81040FFF709BF0F4A95
:101FF000136893F87010082904D841F26141322027
:10200000FEF7FEFB93F870100C2902D941F26241F1
:10201000F5E793F87030526803F180435268093B4A
:10202000BDE8104052F82330184700BFAC0F002025
:1020300070B53B4C002000F0F9FE256800F0B2FEC0
:102040002368A867986F20B940F204413220FEF758
:10205000D7FB00F0D5FE054610B940F20641F5E782
:10206000236893F8A1306BB123681A6D93F8A2101E
:10207000C3F8142193F854200A4383F85420002213
:1020800083F8A120206890F870305BB190F8703030
:10209000012B07D000210AF075FD18B9BDE870408A
:1020A000FFF7AEBE23681F4A93F87E30D05C05F080
:1020B000E5F80121252004F0EBFF284605F058FA49
:1020C0000121084605F0E0F8E81C266802F03EFD14
:1020D000236886F8800093F8803023B104F05CFC1C
:1020E000402005F07BFA236893F8543013F0060F74
:1020F00003D00121002005F097FA236840F608027A
:10210000A3F87C20002283F88120A3F8822083F8A2
:10211000842083F8A020032283F8702070BD00BFC4
:10212000AC0F0020FAEC010070B5394C236893F82D
:102130007030012B054604D940F6AC013220FEF781
:102140005FFB04F0D1FF05F055FA04F03FFC314885
:1021500005F006FA304805F0FDF9304805F068F85A
:102160006B7A43B1206860300BF034FB23689B6EC0
:102170000BB101221A602B7A032B02D140F6DD014C
:10218000DCE72068B3B9032190F87E2090F84A502C
:102190000E460132B2FBF6F303EB4303D31ADAB275
:1021A00045FA03F3DB0703D4013911F0FF01F0D145
:1021B00080F87E2090F9580005F034F8FFF738FFDA
:1021C000256895F8483013B3D5E926126FF000431F
:1021D0009A4208BFB1F1FF3F19D00CF041FAD5E99E
:1021E0002623904271EB030311D3012002F0C0FCBF
:1021F00068B1256802F08CFC04460CF031FA084BFB
:10220000A4FB03341B1844EB0104C5E9263470BD5C
:10221000AC0F00208C05002055555500D6BE898E88
:1022200040420F0038B5104C002000F0FFFD25683B
:1022300000F0B8FD2368A867986F20B940F2B64156
:102240003220FEF7DDFA00F0DBFD10B94FF49761A4
:10225000F6E705F08DF9002005F09CF923680422CB
:1022600083F8702038BD00BFAC0F00202DE9F0418D
:10227000564D0646A8682F680023037043708846B1
:1022800005F076F9032E3CD1AA68137823F00F03EA
:1022900043F0030313700C23537007F18A01A868FD
:1022A0000BF045FC97F89010A8680BF054FC2B68D5
:1022B00093F8482093F8417003F142047AB193F8FF
:1022C0005420520771D593F84C20002A6DD093F812
:1022D0007F0002F0BBFC00281CBF04460127A86851
:1022E00021460BF016FCA86839460BF027FC384B4A
:1022F000D3F80431002B5BD040F2F9513220FEF7C5
:102300007FFA052EC9D1AC682868237823F02F0303
:1023100043EA4811222241F0050121706270036DE9
:10232000DB69C4F80F30036D5A6AE274110A120CAB
:10233000217562759A69998D40F2E24CB1FBFCF10E
:10234000A175996AB2FBFCF2B1FBFCF16276E17512
:10235000C2F30722C1F307212176A2761A8CE27616
:10236000120A22775A8C6277120AA277D3F8972042
:10237000C4F81F2093F89B3084F82330036D93F842
:10238000A23094F8242003F01F0322F01F0213430D
:1023900084F8243002F070F994F8243003F01F031D
:1023A00043EA401384F8243077E793F87C0090E701
:1023B000052E08D12B6821681A6DC2F80A10A18871
:1023C000D1811B6D5F72BDE8F08100BFAC0F0020B2
:1023D0000010004010B50B4C00210320FFF746FF12
:1023E000206803210AF0CEFB18B9BDE81040FFF7C2
:1023F00007BD0121084605F017F92368092283F873
:10240000702010BDAC0F002038B5174D2B68986FA9
:1024100000F0F6FC044620B940F222513220FEF7CB
:10242000EFF928680A2380F87030002100F010FFCF
:102430002B681A6D237892F8964004EA531404F03E
:10244000010421460520FFF711FF286804210AF046
:1024500099FB18B9BDE83840FFF7D2BC2B681B6D5B
:1024600083F8964038BD00BFAC0F002008B5FFF7D9
:10247000B1FC054B186809F002FF04F0DFFFBDE86E
:102480000840FFF7D5BD00BFAC0F00202DE9F04F8D
:10249000044695B0FFF79EFC267806F00F0620460E
:1024A00032460AA90AF020F90B9DB04C8DB39DF875
:1024B0003920012A5BD16B7903F0C003A3F1400CF2
:1024C000DCF1000343EB0C03256895F8802062B132
:1024D0005BB10BF0BEF9236885F87C0093F87C2093
:1024E00083F87D20012283F88120236893F87C0003
:1024F00008283ED10B999DF839000BF0D2FE2268D6
:102500000B9905467C329DF8390002F0E5FA002867
:1025100041D0216891F8543013F0030207D0062E01
:1025200091F84B2048D8002A0CBF2A46012202F01D
:10253000010213F0040381F8832007D0062E91F8DE
:102540004C303BD8002B0CBF2B46012303F001037A
:1025500081F884300B9B1BB39DF8392081F89020C3
:102560001A68C1F88A209B88A1F88E3018E00023F1
:10257000AAE708AA0DF11F0102F0D0FA20B940F62F
:1025800064313220FEF73CF99DF81F0008A90BF0DA
:1025900088FE0546BDE7236883F8830083F884003E
:1025A000062E00F2DE80DFE816F06E0000010B0060
:1025B000DC00DC00DC002A000022B8E70023C5E7CD
:1025C00004F03CFF256895F854309F0701D103259E
:1025D00037E095F88330002BF9D008A8FFF780FC8E
:1025E0009DF92030029395F87D300193FF230093ED
:1025F000022205F142030AA905F1780040E02568AE
:1026000095F88330002B00F0AC8095F854309E078D
:102610001ED508A8FFF764FC9DF92030029395F8B9
:102620007D300193FF230093062205F1420305F15B
:1026300078000AA90AF039F82368002283F8A0205C
:102640000925206809F01BFE284615B0BDE8F08F6B
:10265000D80740F18680590701D504F0EFFE08A89D
:10266000FFF73EFC20689DF92030029390F87D3002
:102670000193FF230093062200F142030AA9783058
:102680000AF013F8A3E7236893F8542052073CD5C7
:1026900093F88420002A38D00B9A93F85A101078B7
:1026A000884261D1507893F85B1088425CD1907871
:1026B00093F85C10884257D1D07893F85D10884227
:1026C00052D1107993F85E1088424DD1517993F828
:1026D0005F20914248D19DF8392093F85910A2EB20
:1026E000010CDCF1000242EB0C0293F856100129B8
:1026F00059D0002A57D193F87F20082A03D093F8A5
:102700007C3093424FD004F099FE256895F88330D1
:10271000002B46D095F854309F0729D508A8FFF71D
:10272000DFFB9DF92030029395F87D300193FF2364
:102730000093002205F1420305F178000AA909F08F
:10274000B4FF2368012283F8A0200925236893F8A9
:102750008420002A7FF475AF93F88330002B7FF438
:1027600070AF04F06BFE32E70022BEE7AC0F002032
:10277000DE0716D55D0701D504F060FE08A8FFF757
:10278000AFFB20689DF92030029390F87D300193D3
:10279000FF230093002200F142030AA9783009F0D8
:1027A00084FF0325D2E70A25D0E722689DF83A1076
:1027B00092F88330059392F8483092F884B001295A
:1027C00083F0010A40F0AC800C994F7907F0C00704
:1027D000A7F140004742474192F85410490740F1A1
:1027E000A18092F84C10002900F09C8092F87F5054
:1027F000082D00F09A80284602F04CF9002818BFF6
:102800008246002F00F093800C99284602F0E4F9EC
:102810000646216891F84100002E00F08A8040F0C1
:10282000020991F85420530752D50B9A91F85A5047
:1028300092F800C0AC457ED192F801C091F85B508F
:10284000AC4578D192F802C091F85C50AC4572D199
:1028500092F803C091F85D50AC456CD192F804C079
:1028600091F85E50AC4566D1557991F85F2095425C
:1028700061D19DF8395091F85920A5EB020CDCF19B
:10288000000545EB0C0591F87C20082A55D091F8FD
:102890007F80A8EB0202D2F1000848EB0208002E6C
:1028A0004ED1BAF1000F4DD00C9B9DF83A20423129
:1028B0000AF09AFFBBF1000F08D0236893F8563056
:1028C000012B59D013B955EA080355D104F0B6FDD0
:1028D000236893F854309B073FF479AE04F0AEFDC3
:1028E000059B002B3FF473AE20680C9B9DF83A20AB
:1028F00000F1420190F841000AF076FF08B925681E
:1029000016B308A8FFF7ECFA20689DF9203002936F
:1029100090F87D300122CDE9009300F14203ADE64D
:10292000002759E792F87C5062E7002671E73E469F
:102930006FE7814675E70025A5E74FF00008AEE791
:102940000120B7E73046B5E795F85530023B012B3B
:102950003FF63DAE002F3FF43AAE08A8FFF7C0FAAD
:102960009DF92030029395F87D300193FE2300936A
:10297000012205F142033EE60028A7D00A2560E6C1
:1029800013B54A4C206809F07AFC236800225A7279
:102990001A6D1188598140F2E2409169B1FBF0F162
:1029A0001984118C528C9A844FF47F42DA844FF64A
:1029B000FF7259841A856946A0680BF0B1F8216846
:1029C00091F8483001F11402EBB1A3681B785B0663
:1029D00019D59DF8053003F0C003402B13D10098A2
:1029E000BDF804304861938091F87D00082801F11A
:1029F0000E0247D00D3102F091F838B941F2DA31C8
:102A00003220FDF7FDFE00234B61ECE723685A7B83
:102A100042F002025A73D3F88A20C3F81A20B3F89E
:102A20008E20DA83236893F95810186D02F096F916
:102A300020681F490BF049F920681E49036D1A8868
:102A4000A0F8332093F8963080F835302A300BF018
:102A500045F9206890F8543013F003041DBF23F0AB
:102A6000040380F854300321022118BF012400F030
:102A7000EFFB002000F0DAF99CB102B0BDE8104095
:102A8000FFF7D6BA91F890304B73D1F88A30C1F87D
:102A90000E30B1F88E3093800023C1F81A30CB830A
:102AA000C0E702B0BDE81040FFF78CB9AC0F0020C2
:102AB000FBC10000D3C10000036D10B5044623B96B
:102AC00040F229313220FDF79BFE022242721B8820
:102AD0004381FF2380F827304FF6FF7303850349B6
:102AE0000BF0F3F80023236510BD00BFFBC100000D
:102AF000F8B5184F0E46B86001210020FEF702FB22
:102B0000054620B940F649013220FDF779FE4FF421
:102B10009072002108F0DAFB01210846FEF7F2FA74
:102B2000044620B14FF49072002108F0CFFB7B687F
:102B300013B940F65301E7E7304609F0CAFB2846CF
:102B400009F0E1FF24B12046BDE8F84009F0DBBF01
:102B5000F8BD00BFAC0F0020014B024A5A6070471D
:102B6000AC0F002074050020026810B522B940F6B1
:102B70001D113220FDF744FE034B1A605B68BDE86F
:102B800010401B68184700BFAC0F002038B590F804
:102B90004030054613F0FD0F14BF0120002085F8DA
:102BA000410005F1420101F067FE95F84030023B1B
:102BB000DBB2012B94BF0123002385F8483015D8E0
:102BC00001F0A6FF04460BF04BFD094BA4FB0334B8
:102BD0001B1844EB0104C5E92634002001F0C8FFAE
:102BE00020B940F6B6113220FDF70AFE38BD00BF0D
:102BF00040420F00014936300BF067B8E9C10000D0
:102C000010B5074C0146206809F0C8FAEFF31082AE
:102C100072B623790133DBB2237102B962B610BDFB
:102C2000B80F00202DE9F0474C4D04689DF8208036
:102C30009DF824901F462B790E4600219246016094
:102C400073B92868A4F1080109F0A8FA2B790133B7
:102C5000DBB22B71AB68002B7CD14FF4D1714AE011
:102C60001A2204F1090008F031FB0123A372BAF122
:102C7000060F3ED8DFE80AF00421273D313D2B0046
:102C8000E37A23F0130343F01303E3729DF9283032
:102C9000237601232375FF23A375B9F1080F4FF0A5
:102CA0007F03E37504F10E0248D004F10D0148469C
:102CB00001F034FF10BBBC211DE0E37A23F01503C3
:102CC00043F01503E1E7E37A43F01003DDE7E37A2D
:102CD00023F0120343F01203D7E79DF82C30E27A79
:102CE00043F01A0322F01B0203F01B031A43E272A3
:102CF000CCE74FF475713320FDF782FD637B43F021
:102D000002036373E37A5B0721D5A8F10202012A6B
:102D10008BBFB2683A681168E26188BFE16104F173
:102D20001C0394BFBA8892889A8084F81B80002381
:102D300023720B4920460AF0CBFF8BE7737C637349
:102D400073681968C4F80E109B889380DAE7FF2334
:102D5000E376ECE70023AB60BDE8F087B80F002016
:102D600059C50000233270B592B205460C461E4686
:102D700009F0DCF935B1044A002315601473567369
:102D80001471936070BD00BFB80F002010B5044CE3
:102D9000206809F0EDF90023A360237B237110BDA7
:102DA000B80F002070B5154DAE6826B14FF4A47170
:102DB0003320FDF725FD286809F0E0F90446A860F6
:102DC00010B940F24B11F3E72B79013BDBB22B71C9
:102DD0001A2200F108053146113008F077FA2674FE
:102DE0007F23E377FF23A377637584F82330E37CA5
:102DF000012262F34613E374284670BDB80F002029
:102E000008B5094B9B6823B940F25B113320FDF7ED
:102E1000F7FC03F10802904202D040F25D11F5E7A1
:102E200003F12B0008BD00BFB80F002010B5064C01
:102E3000A16841B1206809F0B1F923790133DBB20F
:102E400023710023A36010BDB80F00202DE9F04FBF
:102E50008FB004461F46BDF86090039107920BF0B7
:102E6000FFFBD4F8D430049020460593069109F076
:102E7000E7FC079B0546002F00F07F81002B00F048
:102E8000F1800746049B13F5FA66069B43F10008A0
:102E900000F0A4FCD4F814318246A3B3D3F8B801EF
:102EA000002100F0A5FC82458346D4F814010FD020
:102EB000594600F5D87000F067FC0023C4F80831CB
:102EC000D4F8141199B940F2EB612120FDF798FC78
:102ED00000F5D873D0F8B821C4F80831D4F8F03030
:102EE00093422CBFC4F8F030C4F8F020E8E7BBF1FF
:102EF000000F25D0DBE90032DBF808001B1842F197
:102F00000002C1E96C32514604F1E80000F03CFCDB
:102F1000DDB1D4F8F050BAF1000F19D0DAE9003180
:102F2000DAF80800C01841F10001CDE900682A462E
:102F300009F0D5FE854282460AD240F25E31C4E7EE
:102F400000220023C1E96C23DDE7D4F8D050E2E78A
:102F5000D4F8D03003F2CF701AEB06058244BAFBE6
:102F6000F3FA03FB0AFA48F10006B5EB0A0366F12F
:102F70000002C4E93A32B9F1000F6AD14FF0FF32D2
:102F80006FF00043C4E92C23012004F0AFFCD4E926
:102F90002C9BB9EB05036BEB0601012B00F52340DD
:102FA00071F100024FF47A7800F1A1004FF00002B5
:102FB000B0FBF8F000F26528C0F2D880059898427E
:102FC0008A4100DB0593DDF814A0D4F8D400079BF8
:102FD000824528BF8246C4F8DCA02BB1D4E93A234D
:102FE000C4E92E56C4E93223039BC4F8D8800021DB
:102FF000C4E930562A4659722046334609F029FC66
:10300000039B1872C3F80480002F00F0B180039A6C
:1030100001231370049BB9EB0309069B6BEB030BB5
:10302000B9F1010F7BF100034FF0000106DB6548A9
:10303000484571EB0B03ACBF49460146039BA1EB2E
:1030400008011961C24534BF002001200FB0BDE85E
:10305000F08F42F2107329463246E9FB0312C4E9AD
:103060002C1291E7002800F08B80D4E92C126FF02D
:1030700000439A4208BFB1F1FF3F73D0012004F032
:1030800035FC079B8DF82030049B13F59A72069B44
:1030900000F5234043F10003CDE90C234FF47A758A
:1030A0000223A130B0FBF5F000F2652508A80995D0
:1030B000ADF8283006F030FC074610B940F28A41DE
:1030C00003E7D4E92C320C99069E5B1A0D9962EB4A
:1030D00001025B1B62F10002002A059B049DB8BF40
:1030E0000023059350E701208DF820A004F0FEFB9B
:1030F00000F523404FF47A73A130B0FBF3F000F2F7
:1031000065200990D4E93A03D4F8D050D4F8C0101F
:103110008DF829A00A1AB2FBF5F26A43121843F19E
:1031200000032046CDE90C2309F093FB29468DF8D6
:10313000280008A80AF0B9FBDDE90C563FE0D4E905
:103140002E23204609F03BFB08FB00F818EB090092
:103150004BF10003C4E93A032A463346204609F0FE
:103160002EFB11E7049D069E07460DE705922AE710
:10317000039BC3E904561F7064E7002B7FF482AE03
:10318000D4E93A9BD4F8D080049BA3EB090519EB52
:103190000803B5FBF8F508FB05F54BF10006ED1843
:1031A0004FF0000A46F10006002FC8D0049BEB1A2E
:1031B000B3F59A7F97D218EB050546F100065746FE
:1031C000E2E600BF0040420F70B504460D4690F89D
:1031D000103103F0FF0623B140F292212120FDF7C8
:1031E0000FFB11B940F29321F8E701460C4806F0B5
:1031F0003FFB202884F8A80010D0C4F8145195F89B
:10320000D83103F0FF0113B140F29E21E6E784F8C4
:103210001811204609F017FC012070BD3046FCE76C
:1032200057C9000038B504460D460146074806F068
:103230001FFB202884F8A80005D02046294609F065
:1032400002FC012038BD0020FCE700BF57C9000088
:1032500002292DE9F34105464FD004D9032958D05E
:103260004FF4FF6120E0D0E92E6703F0CDFE40F27D
:103270003964D5F81481341947F10006241846F151
:103280000006D8F8187000F0A3FA05F1E8038342AD
:103290000DD0CDE900463A46D8E96C0109F01FFD92
:1032A000874205D240F272312120FDF7A9FA0020B1
:1032B0001A4B1A68D5F81431824297BF40F2E241A6
:1032C0009A69B0FBF1F201FB120294BF821A8018D6
:1032D0009A6241F66A029A859A6A41F66901821AEF
:1032E0008A4202D940F28671DEE7001946F10006F3
:1032F000C3E96C0602B0BDE8F08109F080FAFF2353
:1033000085F8183104F0E8F802B0BDE8F04106F0A5
:1033100067B902B0BDE8F04109F071BAC80F0020EA
:10332000F7B51E4E012333700027CDE900776846BC
:10333000FDF760FF0546C8B10023337003B0F0BD50
:1033400090F8D90107F0CCF994F8D90184F8D85154
:1033500006F0BAFA10B94FF4D7711BE0202384F8B5
:10336000D93104F5D87000F0F3F9DEE7009B002BAB
:10337000DDD093F8D821002AD9D018884FF6FF73F2
:103380009842D9D02946FDF7FBFE04460028D7D144
:1033900040F2BF113520FDF733FA00BFCC0F0020FB
:1033A00038B50C4B90F86820054690F8690033F862
:1033B000124004F09BFA04F29D7404444FF47A71B5
:1033C0002846B4FBF1F1BDE8384001F5B4710AF0CC
:1033D00006BD00BFFEEC01002DE9F843054691F85B
:1033E0008E800C4616461F461BB10121204603F075
:1033F00051FA94F8D831032B3DD8DFE803F00239B5
:10340000333926B940F223213520FDF7F9F901239C
:1034100084F8D8312046FFF7C3FF4FF00009D4E904
:103420006C3219EB030342F10002C4E96C32C5E9C6
:10343000043200232B7094F88E600B3EF3B21A2BEB
:103440009FBF3A4EDE40F64306F0010688BF0126D4
:10345000204686F001060BF002F800B176B1002399
:103460002B7211E00323D4F8E09184F8D831D6E729
:10347000D4F81890D3E740F25D21C5E794F8D8312D
:10348000012BDAB22BD12A7200236B7204F13000C7
:103490000AF04FFC6860002F46D0A8F10D08B8F183
:1034A000010F41D9494628460AF0FFF91FFA80F872
:1034B00020460AF0D4FF0746D6B9804518D32E72AD
:1034C000D4E96C3109FB00F29B1841F10001C5E918
:1034D0000431B9F1000F04D140F2A72194E702238F
:1034E000BEE7494628460AF0E0F938441FFA80F85A
:1034F0004146204603F0CEF9D5E90423C4E96C2304
:10350000236F8BB1B4F8BE10B4F888305B1A1BB2CD
:10351000002B09DDB4F874201344013BB3FBF2F334
:1035200013FB0213A4F8BE30BDE8F88305000004C5
:103530002DE9B841044618B9F4213520FDF760F9AA
:1035400007295AD8DFE801F00442423E59484F5655
:1035500090F8D8310BB9FC21EFE703F0DBF8002835
:103560004ED0DFF8A080A56998F801301BB9236B15
:103570009D4228BF1D4604F130000AF0DAFB00F13D
:103580006707022006F030FFED1B25EAE57585424E
:1035900028BF05460221284606F07AFF00B92F44CD
:1035A0004FF4B172394620460AF00DFCC8F8040009
:1035B000A06906F0CBFE08B9EE21BEE7BDE8B84130
:1035C0000AF013BFBDE8B84104F056B8BDE8B841F1
:1035D0000122002109F034BB012004F0C5FEBDE842
:1035E000B84108F0F4BD90F8D831042B08D04FF45E
:1035F0009171A2E740F227119FE740F22B119CE75F
:10360000BDE8B881CC0F0020024B0022C3E90022A4
:10361000FFF786BECC0F0020014B5870704700BFEB
:10362000CC0F002038B5044620B940F29111352066
:10363000FDF7E6F890F8D83103F0FF0513B14FF429
:10364000C971F4E790F8D931202B02D040F29311E0
:10365000EDE70146044806F00BF984F8D90120286B
:1036600014BF28460D2038BD3135000008B503F0E1
:10367000CBFC054B5A6882422ABF1878002080F0A4
:10368000010000F0010008BDCC0F002010B5044679
:10369000042936D8DFE801F0031A161E31001B4B4F
:1036A0001B7803F0FF026BB9012109F0C9FAB4F8E5
:1036B00088300133A4F8883003F00EFFBDE81040D5
:1036C00005F08EBF042384F8D831F5E7032384F88E
:1036D000D83110BD8369C0F8E031D0F8FC31836285
:1036E000B0F8F8318385D0F800328361D0F8043225
:1036F0000362FFF755FE0223E9E7BDE81040FFF73C
:103700004FBE40F23D313520FDF77AF8CC0F002056
:10371000014B00221A607047D40F002008B5044BFB
:10372000186810B9FFF7F4FF08BD0C20FCE700BFD4
:10373000D40F0020C3693BB983692BB9034B1B68C5
:103740001B1A58425841704701207047D40F00207F
:1037500010B5D0E906436BB1D0E902211144DA6813
:103760009C610A44DA6082693AB1D3610023C0E9FE
:10377000063310BD034A1460F5E7002BF6D0DA607B
:10378000F4E700BFD40F002008B5C16191B90F4A1A
:103790001368836103B1D8611060C2690023C360FC
:1037A0009AB1D3687BB181688B420AD22D21372030
:1037B000FDF726F88B6988618361002BEDD0D86115
:1037C000EBE75B1AC3600023D36008BDD40F002071
:1037D000014B1868704700BFD40F0020034B1B68D3
:1037E000002003B9704718469B69FAE7D40F002000
:1037F0000B4B00221B6830B504464FF0FF351046D6
:1038000023B911B9002808BF104630BDDA68A242BA
:1038100003D3AA423CBF154618461A469B69EFE7F8
:10382000D40F002038B5036A1BB182689C68A2429D
:1038300003D2CD213720FCF7E3FFC1698569D96147
:103840009D6141B18B61996941B1CB61C1680A4405
:10385000121BDA6038BD02490B60F4E7D960F9E762
:10386000D40F0020F8B5264B0446084600211D68F9
:103870000B466DB95BB1984225D3B0FBF3F1013C27
:1038800003FB01F51C44B4FBF3F48C420ED9F8BDE4
:103890002E690BB19E4207D226B94FF4967137209C
:1038A000FCF7AEFFA98A3346AD69E2E7B5FBF3F654
:1038B00003FB165626B9B5FBF2F602FB1656DEB12F
:1038C0000139ED1AE1E7451E1D44B3FBF4F4B5FBE5
:1038D000F0F5AC42DBD3B3FBF5F605FB16374FB979
:1038E000B6FBF2F702FB176727B9B6FBF1F701FB4E
:1038F00017671FB10135ECE72846C8E73046C6E731
:10390000D40F002010B5044609F004FA08B90020CD
:1039100010BDE04309F0FEF90028F8D0E31683EA71
:10392000A4635A1E1A42F2D020460AF097FA1828C9
:10393000EDD8A3B2B3EB144F04D184EA142313F0EF
:10394000FF1FE4D0034B63405A1E1A4214BF0120EC
:103950000020DDE7D6BE898EF0B5070CA7F5AA4298
:10396000144B543A012A03EA90231FD927F400404C
:1039700042F6AA22801A18BF0120002216211646FC
:103980001F2487EA060562EA0505013510D0DD032C
:10399000ADB245EA5606E503ADB2013945EA520239
:1039A0004FEA53034FEA5404EBD1F0BD0020E4E7A3
:1039B0000020FAE7E0FF3F0010B50446084808F091
:1039C000A6FD2046074909F0A6F8204608F0FBFCB2
:1039D00020B12046FFF7DAF8002010BD1220FCE7E6
:1039E000DC0F0020E40F00202DE9FF410678012EB6
:1039F000074640F0878031460020FDF7C1FB0546B1
:103A000020B940F6CD613920FCF7FAFEBB88002BC7
:103A100072D108F053FC002870D195F81031002BBA
:103A20006ED12846FFF7C8FF0446002860D1314612
:103A30003046DFF83C81FDF7A3FB98F818300646C6
:103A40001BB110B940F6E961DDE7D8F81420039204
:103A5000002B45D096F81031002B41D07B88002BED
:103A60003ED198F804300093D8F8102098F806104A
:103A700003AB304608F01BFD90B3304609F075F8F3
:103A800006F14003074605F140026C3653F8041B6B
:103A900042F8041BB342F9D12846FFF78DFF0246D6
:103AA00010B140F60B71AEE70C2F07D10146284646
:103AB000FFF7B8FBE0B940F60F71A4E717B140F685
:103AC0001471A0E798F80530296D43F0040385F8D8
:103AD00054302846FFF778FB50B940F6167192E74C
:103AE000BA8879882846FFF79DFB002808BF07247D
:103AF000204604B0BDE8F0811124F9E73A24F7E745
:103B00000C24F5E701210020FDF73AFB054610B92A
:103B100040F6297177E708F0C9FF04460028E7D18D
:103B200095F8543095F8A12022B195F8A2201343BE
:103B300085F8A100053B012BDAD82B6D13B940F6AF
:103B4000397160E701210846FDF71AFB2946064650
:103B50004FF4907207F042FB0423316D86F8543025
:103B60003046FFF731FB0028C2D140F63E714AE7EC
:103B7000D80F002070B5154D09F035FE00F096FF06
:103B800000F062FD0AF09FF801F026F901F04AFF0B
:103B900001F04AF92A460E4B42F8043B0D4B0E4900
:103BA000196000241B219980DC821C835C745C8278
:103BB0000A4B2C771868197968600833117193E8FB
:103BC000070005F10C0686E8070070BDD80F00203D
:103BD0001B0048012414002003021B0004ED010017
:103BE000044B41F64C52C3E902221B221A74FFF720
:103BF000C1BF00BF24140020014B93F9220070477D
:103C0000D80F0020034B5A8802801B788370002055
:103C1000704700BF2414002013B583781A2B044684
:103C200009D8042B05D9012202FA03F3114A1342E1
:103C300005D1122017E0292B01D03B2BF9D1208888
:103C4000B0F5706FF5D2694609F00DFE68B9019BB9
:103C500093F8282102F0FF004AB9A27883F82921BD
:103C6000FF2283F8282102B010BD0220FBE70C20C0
:103C7000F9E700BF2000380438B504784278857829
:103C800004F0010352EA030104F0020401D11120FF
:103C900038BDBCB9002DFAD0002B08BF144601E096
:103CA00000242546204609F0A7F80028EFD0284632
:103CB00009F0A2F80028EAD0054B00209C74DD74BE
:103CC0009882E5E7002BEBD114461D46EAE700BFDA
:103CD0002414002013B50088694609F0C4FD18B10A
:103CE0000224204602B010BD019809F049F80028CE
:103CF000F6D0019890F83A310BB13A24F1E790F8F8
:103D0000DC3003F0FF04002BF7D190F8D3309B0791
:103D100003D1FF2380F83A31E3E70249D43009F0B8
:103D2000DDFFDEE731E20000F8B50378032B04463F
:103D300002D912252846F8BD4378032BF9D8467ED0
:103D40000EB11125F6E78378012BF2D100F072FC59
:103D5000C307F6D5A27812F0010514D0E178A56862
:103D6000236901294AD83D49A3F25370884247D8B4
:103D70006FF41C7CA5F6C4106144884240D89D4273
:103D800034BF12250025900712D5E078A368216979
:103D9000012837D83248814236D8A3F6C41CA0F691
:103DA000C410844530D88B4234BF122300231D43F6
:103DB000510712D5E178A2682369012926D829493B
:103DC000A3F6C410884223D8A2F6C41088421FD894
:103DD0009A4238BF12263543EDB2002DAAD1237E78
:103DE000013B062BA5D801212846FDF7C9F9064657
:103DF00080B940F6CE513920FCF702FD1225C2E70A
:103E00003025C0E71223D2E73023D0E71226E2E7BD
:103E10003026E0E7B03008F078FE18B196F854305C
:103E20009A0718D1E278A178A068B4F800C0267E7D
:103E3000012A1ABFB2FA82F252090222CB0748BF06
:103E40002769094BC3E9040719715A71A3F806C021
:103E50001E7219736EE70C256CE700BF3CF670020A
:103E60008FFD7002CBF37002D80F002000B589B02F
:103E700043798DF8043083798DF8053001238DF86E
:103E8000063003788DF80730B0F8013040F2712128
:103E90004B430393B0F803204A430C490592097A37
:103EA0008DF81C1000218DF81D100949A2F6C412CE
:103EB0008A4209D8A3F6C4138B4205D801A8FFF79C
:103EC00033FF09B05DF804FB3020FAE7D80F00207B
:103ED0003C369C002DE9F04F437A990744BF43F0EC
:103EE00001034372447A62078BB0054604D112275E
:103EF00038460BB0BDE8F08F14F0F80FF7D1022C64
:103F0000F5D000F097FB34EA000340F0B78195F854
:103F10004870002F40F0B281012CE8D1AB69AF4A64
:103F2000A3F25371914200F2A781EA689342DED86E
:103F3000B5F842300193AB8F00932A8EEB8E698DDA
:103F4000A88C08F066FF002800F096812B789A1E56
:103F5000022A40F29381012BC9D813B9AB78012B07
:103F6000C5D86B78032BC2D895F84930013B062B96
:103F7000BDD8DFF86CA201210020FDF701F99AF805
:103F80001830064673B901210846FDF7F9F80028F4
:103F900018BF064606F1B00008F0B7FD8046D8B15C
:103FA0000C27A5E7B03008F0B0FD0028EBD0D6E92B
:103FB0002C126FF000439A4208BFB1F1FF3FE2D1EB
:103FC0006B7A0093EA68697805F11803304608F0C7
:103FD0006EFA80460028D6D0304608F075F908B150
:103FE0003A2785E7304608F069F981460028F7D17D
:103FF00001460DF11600FDF74DF80446002800F0CB
:104000003981784BBDF816B01868079049461B797E
:10401000DFF8D4918DF82030204600F051FE734B2C
:10402000C4F8E8312046D9F80830A4F800B040F8C8
:10403000303F08F020FE039000F0F6FA039B638700
:104040006B4B99F810201B6884F8382010F0200F73
:104050000FBF1B21B9F80410B9F80200A4F85A00E8
:1040600008BFA4F85A10A4F85C101BB194F96C10A6
:1040700058469847B9F80430B9F8022099F8011069
:10408000019199F800100091033303329BB292B270
:1040900004F1140104F11000FDF7E4F8236923B9D9
:1040A00041F24B113920FCF7ABFB636913B941F2C4
:1040B0004C11F7E708F03EFEE06101F051F920F005
:1040C0007F40606295F84A3005EB430340F2E24BD3
:1040D000598D988C5A460BFB01F10BFB00F0FFF752
:1040E000C1FBA4F8C4B1A061C4F8C00195F84A307E
:1040F000D9F80C1005EB430320461A8EDB8E228480
:10410000638408F0B5FD07A904F1960009F059FC95
:10411000FF2384F8EC31DAF8243023B1012204F5CE
:1041200095712046984799F812A099F813B0B9F8FC
:104130001490BAF1000F40F0EF8000F07BFA824655
:10414000BBF1000F40F0E48000F074FA8346BAF14E
:10415000000F21D1092701F003F90C23B0FBF3F282
:1041600002FB1300C0B2431DDBB2082B9ABF0D3017
:1041700084F8A20084F8A2300121204600F0A0FDBE
:10418000002F40F0C3802046FFF74CFAB8F1000F33
:104190000FD0A0B10746ACE00028DBD006A920462E
:1041A0008DF818A08DF819B0ADF81A9009F0D2FB6F
:1041B000D1E70028EED16978304608F032F905F1F0
:1041C000030AAA7829785346304608F0DBF800281D
:1041D00056D1B8F1000F4BD11220DBE73CF670024C
:1041E000D80F0020EBFB010024140020F40F002066
:1041F0009C050020DDF81C904C4566D0BBF100000A
:1042000018BF012099F8022009F10303514609F073
:10421000EBFA002859D099F80920607A09F10A03CD
:1042200004F10A0109F0E0FA00284ED00B2760E003
:10423000EB6808936B7A8DF81C80DB0744BFAB6991
:10424000099307A948BF0123304648BF8DF81C30A9
:1042500008F061FC95F84910304608F090F82146C6
:104260003046FEF7B1FF00287FF442AE072740E05A
:1042700012273EE00D273BE6302739E6112737E6C7
:10428000B8F1000F02D13046FEF780FCAA782978F9
:104290005346304608F0D2F8B8F1000F02D104239B
:1042A00086F854303465AB7813F0FD0F524614BFD6
:1042B00001210021304608F0DCF82B7853B995F83D
:1042C00002B0CDE907330BF0FD0B07A8FCF792FF16
:1042D00000288FD00121304608F0E6F8B8F1000F31
:1042E000A6D00421304608F077F800287FF400AE0D
:1042F0000C27208800F034FA20880021FCF756FFB4
:1043000000283FF4F5AD41F21241CBE6384641E7D3
:1043100000283FF41FAF41E7BBF1000F7FF43EAF31
:1043200012E700BF10B54379032B94B056D823F0A1
:1043300002038DF80630D0F80630CDF807304389F7
:10434000ADF80B3002798DF8042001238DF80D3083
:10435000027B03888DF8052040F2712253430493B9
:1043600041884A430792847B417B41EA0421ADF8AE
:104370002810047CC17B41EA0421ADF82E10847C16
:10438000417C41EA0421ADF83410047DC17C41EA4E
:104390000421ADF83A10417D847D41EA0421ADF855
:1043A0004010C17D007E41EA0021ADF84610002199
:1043B0008DF84C100B488DF84E100B49007A8DF893
:1043C0004D00A2F6C4128A420AD8A3F6C4138B4247
:1043D00006D801A8FFF77EFD14B010BD1220FBE740
:1043E0003020F9E7D80F00203C369C0038B5012179
:1043F0000020FCF7C5FE054620B941F244413920B2
:10440000FCF7FEF9B03008F080FB1E4B1B7E5BB35F
:10441000F0B195F85430053B012B19D8284608F027
:10442000A4FB044610B141F24F41E8E72846FEF7ED
:1044300043FB95F8543023F0040385F854302246AA
:1044400021462846FEF7EEFE80B941F25441D6E7F8
:1044500001210846FCF794FE054610B941F25B4184
:10446000CDE7B03008F051FB10B90C24204638BD20
:10447000284608F07AFB04460028F7D12846FEF7C4
:104480001BFBF3E7D80F00200278034672B1427895
:1044900062B142881A2A09D982881A2A06D9044A9E
:1044A000006810609B88938000207047122070473E
:1044B00024140020024B02689A600020704700BF5D
:1044C00024140020024B0268DA600020704700BF0D
:1044D000241400200378A3F10A02112A9DBF024A86
:1044E0000020137412207047241400200378FF2B3F
:1044F00015D14378FF2B12D18378FF2B0FD1C378CE
:10450000FF2B0CD1037923F0E0021F2A07D113F00F
:10451000E00F04D0034A5B09137200207047122099
:10452000704700BFD80F002008B5FFF7F1F8FFF77C
:104530006BF8FFF761FBBDE8084001460148FEF754
:10454000D7BA00BF0010002008B5FEF705FBFFF743
:10455000EBFF09F046F9074800F58471FDF70EF905
:10456000002007F0B5FD09F076FFBDE8084000F037
:104570002FBE00BF0010002010B5094C094904F5FA
:10458000037008F074FF04F50470074908F06FFF2A
:1045900004F505700549BDE8104008F068BF00BF8C
:1045A00000100020A8050020B0050020A005002074
:1045B00038B5094C0D4600F005FED4F80C02C4F8DD
:1045C000045108F04CFFFFF70BFB00F0E1FE012364
:1045D00084F8183238BD00BF00100020014B93F85A
:1045E000180270470010002010B5074CD4F81002D4
:1045F00008F035FFD4F8140208F031FFFFF7BAFADB
:10460000002384F8183210BD00100020C2080549AC
:10461000012300F0070003FA00F08B5C1843885474
:10462000704700BFD8040020014BD3E90001704758
:10463000D8040020034B1868C0F30020400040F06D
:1046400001007047D804002008B509F0E9FF084AC6
:10465000002332F82310814205D302EB83039B78B9
:10466000044A137008BD01330C2BF2D10023F7E785
:1046700018ED010019120020024B1878072828BFF6
:10468000072070471912002010B544682388A4F849
:10469000783194F8683084F87711012B06D0022B1A
:1046A00004D040F20B310620FCF7AAF884F87A31E6
:1046B00094F86930012B01D0022BF2D184F87B31C0
:1046C000044904F5B77009F009FB002384F834317C
:1046D00010BD00BFDBD40000406808490388A0F883
:1046E0006A3190F8603080F86C3190F8613080F871
:1046F0006D3100F2611009F0EBBA00BFF1D4000097
:1047000030B505680446084651B115B12179994282
:1047100015D1FF216171237122600023637130BDC7
:10472000002DFCD0FF23637123792160012205490C
:1047300002FA03F3C1F8083560711046EFE7002074
:10474000EDE700BF00F00140044B002283F8222077
:104750004FF6FF729A84DA841A8570471A12002085
:10476000054B9A8C824201BF002283F822204FF62B
:10477000FF729A84704700BF1A120020014BD88440
:10478000704700BF1A120020094A0346908C4FF66A
:10479000FF71884206D192F82210012905D01A60D3
:1047A000012070470020186070470020704700BF4C
:1047B0001A120020064B93F82220012A1FBF012065
:1047C000DA8C83F822009A8408BF0020704700BF6B
:1047D0001A120020014B1885704700BF1A120020E2
:1047E000064B0246198D988C884205D193F8220019
:1047F00018B1136001207047002070471A12002082
:10480000094B998C1A8D914201D0002070474FF6C8
:10481000FF729A8493F82220002AF6D0002283F8AF
:1048200022200120704700BF1A120020054B998CEE
:104830001A8D914203BF93F82200B0FA80F040092C
:10484000012070471A12002050B90A4A134601206D
:1048500003F8010B0868C2F801008A889A80704743
:10486000012805D1034B0A689A608A88D8719A8119
:10487000704700BF4412002048B90A4B187880B135
:10488000D3F80120B3F805300A608B807047012807
:1048900006D1044BD87920B19A680A609B89F4E765
:1048A000002070474412002020B9054B187800F012
:1048B0000100704701280ABF014B0020D879F6E7B4
:1048C00044120020F7B500228B888DF80600ADF861
:1048D000043008680C4B8DF80720019D1C780146B8
:1048E00003F5AC73D0B2844201D8082009E0D3E9C3
:1048F0000076AE4208BF8F4203F1080302F10102C5
:10490000F0D103B0F0BD00BF5812002030B5094B04
:1049100001465C78002203F58173D0B2844201D84D
:10492000082005E013F8015B8D4202F10102F4D189
:1049300030BD00BF58120020F0B5254D95F89841C4
:1049400089B0224605F29911684606F047FC2146D7
:10495000684608F067FF0446B8B300EB4001C9B2EF
:1049600002A8FCF783F9601E95F8A161C0B201248A
:1049700095F8982105E0731CB3FBF2F102FB1133AB
:10498000DEB206F120030DEB030111F8203C002BF1
:10499000F1D100EB400220326A4406EB46032B447F
:1049A00012F8187C83F8A27112F8177C12F8162CF2
:1049B00083F8A37183F8A42101F8204C0138AB19C6
:1049C000C0B2FF2883F89941D2D109B0F0BD00BF31
:1049D0005812002070B5064688B00C46002A4FD009
:1049E0002A4A92F8A131D01890F8991121B94FF4C0
:1049F00080712820FBF704FF03EB430111440133CE
:104A000091F8A251E57091F8A35191F8A411617148
:104A10000021257180F8991192F89811B3FBF1F0FB
:104A200001FB103382F8A13192F8C23123B9184941
:104A300002F5DD7009F04FF9657905F03F0545F0A5
:104A4000400565710D220021684606F03FFCE378C1
:104A50008DF80F3023798DF80E3004AA04236946AF
:104A600030468DF80D5006F0CFF89DF81F302370BA
:104A70009DF81E3063709DF81D30A37008B070BDA6
:104A800003216018FCF7F2F8D6E700BF58120020A7
:104A900039490000044B5A78824286BF1B1893F8AC
:104AA00042010020704700BF58120020064B002230
:104AB0004FF461711A8083F8C32183F8C421A3F8ED
:104AC000C61183F8C221704758120020014B83F8A9
:104AD000C40170475812002010B51446FFF7F2FECB
:104AE000082803D1012000F0010010BDFFF70EFFE0
:104AF000064B5A788242F5D904B12070184490F8D8
:104B00003A31012BEED090F84A01ECE75812002020
:104B1000014BB3F8C60170475812002030B50A4B5C
:104B20005C7884420ED9184490F802012B3003EBD4
:104B3000C004A5790D7053F830001060A3889380ED
:104B4000012030BD0020FCE7581200200246074833
:104B500010B590F8C34124B1417821B1023001F081
:104B600003FF204610BD0C46FBE700BF5812002093
:104B7000F8B5184C064648B3617804F5A17008F002
:104B800051FE94F898510746294604F2991008F00E
:104B900049FE2D1AEDB2AF421AD8002506270FE0C4
:104BA000E21892F8422152B907FB034104EB0313C8
:104BB000324601F5857103F18200FFF70BFF0135E5
:104BC0006278EBB29A42EBD80120F8BD0546E5E7E2
:104BD0000020FAE758120020F0B51B4E737883428C
:104BE00089B007460D462CD9331893F8424144BB8F
:104BF0000D222146684606F069FBEB788DF80F30F0
:104C00002B798DF80E3006EB07106B798DF80D308F
:104C100004AA04236946823005F0F6FF2A789DF83D
:104C20001F309A420AD16A789DF81E309A4205D107
:104C3000AC789DF81D00231A5C425C41204609B007
:104C4000F0BD0020FBE700BF58120020074B5A7848
:104C5000824209D91A1892F842212AB9062202FB87
:104C6000003000F585707047002070475812002012
:104C700030B50024A0F84240B0F8464042F210752A
:104C80004C43B4FBF2F4A0F84640541E05FB03432A
:104C9000B3FBF2F3A0F84430084BB3FBF2F301335B
:104CA000A0F84A30838F05FB0344436BB4FBF2F456
:104CB00059438463B1FBF2F2426330BD005A620291
:104CC00070B504460D4649BB4FF40E7206F0FEFA6D
:104CD000012384F896306FF0360384F8E330042320
:104CE00084F8E4306FF03B0384F8E5306F2384F8F8
:104CF000E6306FF03F0384F8E7302B2384F8E2308E
:104D0000FE2384F81E317F2384F88D30202384F81D
:104D1000E85084F8E95084F8D93170BD012912D1E6
:104D200082690D4B1344B3FBF2F3C0F8B83040F680
:104D3000B833A0F8BC30438C114604F18000BDE8C4
:104D40007040FFF795BF0229E7D1B0F80632D0F8DE
:104D500000228169F1E700BF7FC3C901034B80F8DE
:104D60006C101B680BB1008818477047B80500200D
:104D7000074B93F900301844142804DC10F17F0F1E
:104D800003DB40B27047142070476FF07E0070471D
:104D90002014002007B57F230DF107008DF80730A0
:104DA00002F036FC9DF9073068B10A4A507840425B
:104DB00043FA80F0142808DC10F17F0F07DB40B2C3
:104DC00003B05DF804FB1846FAE71420F8E76FF02B
:104DD0007E00F5E720140020024B00221A705A7062
:104DE000704700BF20140020054B1B7833B9054BDA
:104DF0001A681B7902600371012070470020704718
:104E000022140020E0040020054BFF221A70054AFE
:104E1000016811600179117100221A70704700BF9A
:104E200022140020E004002007B5064B186800900B
:104E30001B798DF804306846FFF7E6FF03B05DF894
:104E400004FB00BFEBFB01000346407848B1DB7870
:104E50003A2B05D8034AD35C1B1A58425841704775
:104E60000120704748ED01003A2908B5C17003D808
:104E7000064B5B5C437008BDFF2904D04FF4896189
:104E80002A20FBF7BDFC0123F4E700BF48ED010039
:104E90002DE9F04385B0894602A91446984608F0EA
:104EA000E2FC054690BB039E2CB9012086F89500D4
:104EB00005B0BDE8F08337692146384606F042FF69
:104EC00001460028F4D0134B5B88A34220D301AAEB
:104ED000384607F07AF896F895300198002B0CBF09
:104EE0004946022108F067FE0198414622460330F8
:104EF00006F074F92146384606F069FF18B97A21A0
:104F00002B20FBF77DFC86F89550D1E70120CFE7F9
:104F10002846CDE724140020024B987DC04300F0C2
:104F200001007047241400207FB505460C4621B9C6
:104F300040F215111020FBF763FC03888B800023DF
:104F40004B724669304607F032F8014610B94FF40B
:104F50008F71EFE701AA304607F037F8E08010B90B
:104F600040F22311E6E7FB2802D940F22511E1E7E0
:104F7000019808F028FE012801D0022805D12072EE
:104F8000206828B94FF49E71D4E740F23511D1E77B
:104F90000199E288033106F021F9304607F01DF847
:104FA00010B940F24111C5E70021304606F073FF09
:104FB00010B94FF4A371BDE70A4BDA7D82B11A8BA9
:104FC0002888013A02A91A8308F04DFC10B140F27A
:104FD0004F11AFE7039AB2F8A6300133A2F8A6301A
:104FE00004B070BD2414002010B521B940F25B213B
:104FF0001020FBF705FC4A600B72EFF3108472B6C9
:10500000031D0B6042681AB1127A012A08BF0360BF
:1050100003681960016004B962B6034BBDE8104033
:10502000587805F01DBF00BF401400202DE9F7435C
:1050300006460D464FF0050800274FF003092B697F
:105040003BB11B7A2BB12C699CB9002003B0BDE8A1
:10505000F0836C68237A012BF7D0EFF3108372B6DC
:105060006A6812686A6003B962B6237A002BE6D0D8
:105070002C61237ADBB284F80880013B0B2B66D8C5
:10508000DFE803F0620620345F653D6565656552C3
:10509000636823B940F2C7111020FBF7B1FB20462B
:1050A000314698470420EFF3108372B6227A052A1E
:1050B000D1B201D0002953D127722F61002B4BD1DF
:1050C00062B649E0636813B94FF4E871E4E731462A
:1050D000204698470346C3F30723012BADF804008D
:1050E000C0B237D0022BDED12F6135E0636813B92F
:1050F0004FF4ED71D0E7204698470020D3E763686E
:105100000BB9DA21C8E70D2232701988A6F803100E
:10511000012200241869B2707271B471214606F040
:10512000BAFE2C61042091E7606810B940F20521B5
:10513000B2E70E4B31461B68984700232B610220D3
:1051400084E740F20E21A7E740F21121A4E74FF4D3
:105150000571A1E784F8089000283FF470AF75E767
:10516000002B7FF46CAF62B669E700BFBC0500207E
:1051700070B5134C1426231D32460021184606F044
:10518000A5F803460125257400210433324604F1B5
:105190001800C4E9013306F099F884F8245004F1AA
:1051A0001C03C4E906330023E362236384F834302C
:1051B000C4F83530C4F8393084F83D3070BD00BFD4
:1051C00040140020014B5870FFF7D2BF401400205C
:1051D000014B024A1A607047BC050020294F0000AD
:1051E00038B50B4D05F118010446FFF71FFF70B9E4
:1051F000AB681B7A0C2B04D1064BDA7D0AB11B8BF2
:105200002BB120460449BDE83840FFF70FBF38BD39
:1052100040140020241400204414002010B513462C
:10522000027A22B14FF42D711020FBF7E9FA0A46F9
:10523000BDE8104001460148FFF7D6BE44140020E7
:10524000044890F834301BB903492C3008F03DBDB8
:10525000704700BF40140020BDDC000010B50A46B6
:10526000037A23B14FF42F711020FBF7C9FA0146DE
:10527000BDE8104001480723FFF7B6BE58140020D0
:105280001346027A0AB1037270470A460146014882
:10529000FFF7AABE441400201B234FF01B12838487
:1052A000038482618382C260038539B94FF4A47399
:1052B000034AC3844384C261C3820261704700BF52
:1052C000480148010346F0B4B3F85420B3F848400D
:1052D000B3F84460DF8FB3F84250944228BF1446BD
:1052E0000846B3F84C20B3F85610DC878A4228BF32
:1052F0000A46B3F84610A3F84220914238BF11463F
:10530000A64238BF2646A742A3F84460A3F8461039
:105310001FD1AA1A18BF0122B3F84A50B3F850405F
:10532000B3F852709E8FB3F84010A54228BF2546AF
:10533000B3F84E409D87BC4228BF3C46AE42A3F81E
:10534000404002D1A14200D12AB1F0BC034908F08B
:10535000C5BC0122E0E7F0BC704700BFE3DC000001
:10536000094AD2E90003434083EAB01181EA4321AC
:105370004FEAF3435360054B116058434FEAF06026
:1053800000EB8000704700BFE8040020BB79379E27
:1053900010B50A4C09480821FBF768FCD4E9002342
:1053A0001343F7D0064CFFF7DBFF2060FFF7D8FF71
:1053B000236860600343F6D010BD00BFE8040020FE
:1053C00080140020174B184A9A60184ADA62184A6B
:1053D0001A61184A5A61184A9A61184A1A63184A97
:1053E0005A62184ADA64184A9A64184A9A63184B3F
:1053F000184A9A60184A1A62184A5A60184A1A607B
:10540000184A9A62184ADA62184ADA60184A9A61A7
:10541000184A1A63184A9A64184ADA64184A5A628F
:10542000704700BFC00500208FDF0000ADE0000026
:1054300077E000003BE00000DD560000A5580000CA
:105440008D570000B7E10000D3E100004157000094
:10545000AC060020B1DF000077E10000C5DF0000EE
:10546000FFDF00000BE10000C9E000002DE10000BB
:10547000EDE000004FE20000FBE10000F1E1000080
:1054800091E10000054B064A9A65064ADA65064B2B
:10549000064A9A65064A1A66704700BFC005002092
:1054A00029D60000F9D60000AC06002075D5000012
:1054B0005BD7000070B50C46252A00F2CC80DFE8EF
:1054C00002F01337404BCACA4A6264694A4A6DCA3D
:1054D000CACACA784A4A929298CAA0CACACACACA4A
:1054E000CACACACACAB3BCC3416840F2E240D1F8D2
:1054F0000032B1F8F821B2FBF0F22271D1F8FC21B0
:10550000B3FBF0F3B2FBF0F2E3716271C3F3072374
:10551000C2F30722A2712372B1F8043263721B0A2C
:10552000A3722046B1F80612BDE8704008F04FBBE8
:105530004368D3F8E81120460131BDE8704008F017
:105540004ABB02784368012A02D193F8203101E076
:1055500093F82931237170BD4568204605F50B711C
:1055600008F040FB05F50D71204608F045FB05F5F8
:105570000371204608F043FB05F588712046BDE81D
:10558000704008F043BB4368DFE7BDE87040084661
:1055900000F03EB9BDE8704000F04CB90E230B712D
:1055A00059234B7100238B714E23CB7110230B7247
:1055B000D1E70378456873B995F820315BB195F868
:1055C0001D11204608F052FB95F81C112046BDE83D
:1055D000704008F04FBB95F81B11204608F046FBC1
:1055E00095F81A11F2E741682046BDE8704008F0CE
:1055F00083BC436893F836210A7193F837314B71B5
:10560000A9E7456895F8F30107F0EDFF014620464C
:1056100008F026FB95F8F20107F0E5FF0146204669
:10562000BDE8704008F01ABB0D4B1B68002B92D0F0
:1056300002462320BDE870401847094B1B68002B29
:1056400089D002462420F5E7054B1B68002B82D049
:1056500002462520EEE740F2FE315120FBF7D0F85C
:10566000980700203A289ABF024B53F820000020E8
:10567000704700BFC00500203A289ABF024B53F87C
:1056800020000020704700BFAC060020F7B5456839
:105690002E6904464FF6FF770DF102010DF101026C
:1056A0003046ADF8027006F0AEFB01A9304606F0B8
:1056B000CDFB40B1019806F08EFC616800220272B9
:1056C000FFF7CCFDE8E7044905F1A80003B0BDE809
:1056D000F04008F0FDBA00BF29DF000038B543688C
:1056E00093F88E201B2A044624D1002283F8D1206F
:1056F00083F8CC2083F83622436893F8D2101D88B3
:1057000003F5D17069B10C4983F8D220A3F8AC51EC
:1057100083F8AB2108F0D9FA6368002083F88E0083
:1057200038BD012283F8AB11A3F8AC51034983F8CB
:10573000AE21EFE70220F3E727E0000019E00000C8
:1057400010B5426892F88F00E0B94C680E4B89683A
:10575000A2F8CE002340C2F8E23021F41E51C3F378
:10576000076343F0080321F01001090482F8E530D3
:105770000123090C82F8D0300423C2F8E61082F825
:105780008F3010BD0120FCE72FC904F738B54368FE
:1057900093F88E20042A32D14D681B4A8C682A4027
:1057A000C3F8E22024F41E54C2F3076242F0080258
:1057B00024F0100483F8E52024040022240C83F84C
:1057C0008E204068C3F8E64083F8CC2080F83B2167
:1057D00093F8840100F0FF0498B91A88A3F8862191
:1057E00083F885414A68C3F888218A68C3F88C2108
:1057F000064903F5BE7008F068FA204638BD01245A
:10580000FBE71446F9E700BF2FC904F755E1000094
:1058100010B50446FEF708FF21F41E51044B21F099
:10582000100109040340090C6360A16010BD00BFB2
:105830002FC904F737B50C464568FEF7F5FE0A4B4D
:1058400095F8E22021F41E5121F0100103400904D3
:105850000093090C13408DF8003001916B4603CB87
:105860006060A16003B030BD2FC904F7DB0410B540
:10587000144604D5037D13B10023436310BD436B6D
:105880000133436308F0C6FCD0E90D239A42F5D3F7
:105890000023436302492046BDE8104008F01EBAC9
:1058A000A9E1000038B5446894F88E30012B0D460C
:1058B00003D094F88F30002B3FD194F8D330990760
:1058C00019D4284608F0ABF984F8DD00B5F80530A6
:1058D000A4F8DE30B5F80730A4F8E03094F8D330FF
:1058E00043F0020284F8D320DA070FD5144904F1FB
:1058F000D40008F0F3F994F8D330DB0712D494F80D
:105900008F3043B14E214020FAF77AFF94F83A31B4
:10591000002BEBD1EFE7012284F88F2084F8D02010
:10592000A4F8CE3094F88E30012B4FF0000003D154
:1059300084F88E0084F8CC0038BD0120FCE700BF5D
:1059400031E2000070B545680446FFF723FA054BC5
:1059500085F88D001B6801461BB12046BDE87040EC
:10596000184770BDA0070020024B1B6803B1184701
:10597000704700BF9C070020F0B5204E05463078E8
:105980000024147080B1431E7768DBB2181B012815
:105990000BDC07EBC40057F834604068884208BF4E
:1059A000AE4212D114700120F0BD1819461007EB59
:1059B000C60E57F836C0DEF80460AC45C0F34700A9
:1059C0008E412CBF03460446E0E7B54271EB000070
:1059D00002D214700020E7E707EBC30057F833400A
:1059E0004068884208BFAC4201D11370DBE7A54292
:1059F000814128BF01331370ECE700BF98140020E9
:105A000010F0070208B503D063214820FAF7F8FE2A
:105A100018B1034B197258601A70C80008BD00BF56
:105A200098140020014B00221A707047981400202F
:105A3000014B187A704700BF981400202DE9D3431A
:105A400008F023FC0DF1070207460E46FFF794FF0E
:105A500098B9114C2278237A93420ED0616813468C
:105A60006FF0604E9DF80700984209D301EBC00328
:105A7000C3E9007601322270012002B0BDE8D08374
:105A800003EB0E0001EBC000D0E90089013BC0E947
:105A90000289DBB2E6E700BF9814002037B508F0B2
:105AA000F4FB0DF10702FFF767FF0446A0B10C4AB3
:105AB0009DF8070013785568013BDBB213701A1A82
:105AC000D2B2411CD200834238BF002205EBC10193
:105AD00005EBC00005F03CFB204603B030BD00BF25
